{
	"data": {
		"bytecode": {
			"linkReferences": {},
			"object": "608060405234801562000010575f80fd5b50604051620011ae380380620011ae8339818101604052810190620000369190620001e9565b805f73ffffffffffffffffffffffffffffffffffffffff168173ffffffffffffffffffffffffffffffffffffffff1603620000aa575f6040517f1e4fbdf7000000000000000000000000000000000000000000000000000000008152600401620000a191906200022a565b60405180910390fd5b620000bb81620000c360201b60201c565b505062000245565b5f805f9054906101000a900473ffffffffffffffffffffffffffffffffffffffff169050815f806101000a81548173ffffffffffffffffffffffffffffffffffffffff021916908373ffffffffffffffffffffffffffffffffffffffff1602179055508173ffffffffffffffffffffffffffffffffffffffff168173ffffffffffffffffffffffffffffffffffffffff167f8be0079c531659141344cd1fd0a4f28419497f9722a3daafe3b4186f6b6457e060405160405180910390a35050565b5f80fd5b5f73ffffffffffffffffffffffffffffffffffffffff82169050919050565b5f620001b38262000188565b9050919050565b620001c581620001a7565b8114620001d0575f80fd5b50565b5f81519050620001e381620001ba565b92915050565b5f6020828403121562000201576200020062000184565b5b5f6200021084828501620001d3565b91505092915050565b6200022481620001a7565b82525050565b5f6020820190506200023f5f83018462000219565b92915050565b610f5b80620002535f395ff3fe608060405234801561000f575f80fd5b5060043610610060575f3560e01c806336a8915b146100645780633d1c2273146100805780633f9b250a1461009e578063715018a6146100ce5780638da5cb5b146100d8578063f2fde38b146100f6575b5f80fd5b61007e600480360381019061007991906107d9565b610112565b005b610088610202565b6040516100959190610895565b60405180910390f35b6100b860048036038101906100b391906108d8565b610216565b6040516100c591906109fa565b60405180910390f35b6100d6610458565b005b6100e061046b565b6040516100ed9190610a59565b60405180910390f35b610110600480360381019061010b9190610a9c565b610492565b005b61011a610516565b6001604051806080016040528085815260200184815260200183815260200142815250908060018154018082558091505060019003905f5260205f2090600402015f909190919091505f820151815f0190816101769190610cc1565b50602082015181600101908161018c9190610cc1565b5060408201518160020190816101a29190610cc1565b50606082015181600301555050600180805490506101c09190610dbd565b7fc77d6c3093084afc6756baa1074eb3001f489af9b0de3e3054fdeadf6da043c9848484426040516101f59493929190610e38565b60405180910390a2505050565b5f61020b610516565b600180549050905090565b61021e610665565b610226610516565b600180549050821061026d576040517f08c379a000000000000000000000000000000000000000000000000000000000815260040161026490610eda565b60405180910390fd5b6001828154811061028157610280610ef8565b5b905f5260205f2090600402016040518060800160405290815f820180546102a790610af4565b80601f01602080910402602001604051908101604052809291908181526020018280546102d390610af4565b801561031e5780601f106102f55761010080835404028352916020019161031e565b820191905f5260205f20905b81548152906001019060200180831161030157829003601f168201915b5050505050815260200160018201805461033790610af4565b80601f016020809104026020016040519081016040528092919081815260200182805461036390610af4565b80156103ae5780601f10610385576101008083540402835291602001916103ae565b820191905f5260205f20905b81548152906001019060200180831161039157829003601f168201915b505050505081526020016002820180546103c790610af4565b80601f01602080910402602001604051908101604052809291908181526020018280546103f390610af4565b801561043e5780601f106104155761010080835404028352916020019161043e565b820191905f5260205f20905b81548152906001019060200180831161042157829003601f168201915b505050505081526020016003820154815250509050919050565b610460610516565b6104695f61059d565b565b5f805f9054906101000a900473ffffffffffffffffffffffffffffffffffffffff16905090565b61049a610516565b5f73ffffffffffffffffffffffffffffffffffffffff168173ffffffffffffffffffffffffffffffffffffffff160361050a575f6040517f1e4fbdf70000000000000000000000000000000000000000000000000000000081526004016105019190610a59565b60405180910390fd5b6105138161059d565b50565b61051e61065e565b73ffffffffffffffffffffffffffffffffffffffff1661053c61046b565b73ffffffffffffffffffffffffffffffffffffffff161461059b5761055f61065e565b6040517f118cdaa70000000000000000000000000000000000000000000000000000000081526004016105929190610a59565b60405180910390fd5b565b5f805f9054906101000a900473ffffffffffffffffffffffffffffffffffffffff169050815f806101000a81548173ffffffffffffffffffffffffffffffffffffffff021916908373ffffffffffffffffffffffffffffffffffffffff1602179055508173ffffffffffffffffffffffffffffffffffffffff168173ffffffffffffffffffffffffffffffffffffffff167f8be0079c531659141344cd1fd0a4f28419497f9722a3daafe3b4186f6b6457e060405160405180910390a35050565b5f33905090565b60405180608001604052806060815260200160608152602001606081526020015f81525090565b5f604051905090565b5f80fd5b5f80fd5b5f80fd5b5f80fd5b5f601f19601f8301169050919050565b7f4e487b71000000000000000000000000000000000000000000000000000000005f52604160045260245ffd5b6106eb826106a5565b810181811067ffffffffffffffff8211171561070a576107096106b5565b5b80604052505050565b5f61071c61068c565b905061072882826106e2565b919050565b5f67ffffffffffffffff821115610747576107466106b5565b5b610750826106a5565b9050602081019050919050565b828183375f83830152505050565b5f61077d6107788461072d565b610713565b905082815260208101848484011115610799576107986106a1565b5b6107a484828561075d565b509392505050565b5f82601f8301126107c0576107bf61069d565b5b81356107d084826020860161076b565b91505092915050565b5f805f606084860312156107f0576107ef610695565b5b5f84013567ffffffffffffffff81111561080d5761080c610699565b5b610819868287016107ac565b935050602084013567ffffffffffffffff81111561083a57610839610699565b5b610846868287016107ac565b925050604084013567ffffffffffffffff81111561086757610866610699565b5b610873868287016107ac565b9150509250925092565b5f819050919050565b61088f8161087d565b82525050565b5f6020820190506108a85f830184610886565b92915050565b6108b78161087d565b81146108c1575f80fd5b50565b5f813590506108d2816108ae565b92915050565b5f602082840312156108ed576108ec610695565b5b5f6108fa848285016108c4565b91505092915050565b5f81519050919050565b5f82825260208201905092915050565b5f5b8381101561093a57808201518184015260208101905061091f565b5f8484015250505050565b5f61094f82610903565b610959818561090d565b935061096981856020860161091d565b610972816106a5565b840191505092915050565b6109868161087d565b82525050565b5f608083015f8301518482035f8601526109a68282610945565b915050602083015184820360208601526109c08282610945565b915050604083015184820360408601526109da8282610945565b91505060608301516109ef606086018261097d565b508091505092915050565b5f6020820190508181035f830152610a12818461098c565b905092915050565b5f73ffffffffffffffffffffffffffffffffffffffff82169050919050565b5f610a4382610a1a565b9050919050565b610a5381610a39565b82525050565b5f602082019050610a6c5f830184610a4a565b92915050565b610a7b81610a39565b8114610a85575f80fd5b50565b5f81359050610a9681610a72565b92915050565b5f60208284031215610ab157610ab0610695565b5b5f610abe84828501610a88565b91505092915050565b7f4e487b71000000000000000000000000000000000000000000000000000000005f52602260045260245ffd5b5f6002820490506001821680610b0b57607f821691505b602082108103610b1e57610b1d610ac7565b5b50919050565b5f819050815f5260205f209050919050565b5f6020601f8301049050919050565b5f82821b905092915050565b5f60088302610b807fffffffffffffffffffffffffffffffffffffffffffffffffffffffffffffffff82610b45565b610b8a8683610b45565b95508019841693508086168417925050509392505050565b5f819050919050565b5f610bc5610bc0610bbb8461087d565b610ba2565b61087d565b9050919050565b5f819050919050565b610bde83610bab565b610bf2610bea82610bcc565b848454610b51565b825550505050565b5f90565b610c06610bfa565b610c11818484610bd5565b505050565b5b81811015610c3457610c295f82610bfe565b600181019050610c17565b5050565b601f821115610c7957610c4a81610b24565b610c5384610b36565b81016020851015610c62578190505b610c76610c6e85610b36565b830182610c16565b50505b505050565b5f82821c905092915050565b5f610c995f1984600802610c7e565b1980831691505092915050565b5f610cb18383610c8a565b9150826002028217905092915050565b610cca82610903565b67ffffffffffffffff811115610ce357610ce26106b5565b5b610ced8254610af4565b610cf8828285610c38565b5f60209050601f831160018114610d29575f8415610d17578287015190505b610d218582610ca6565b865550610d88565b601f198416610d3786610b24565b5f5b82811015610d5e57848901518255600182019150602085019450602081019050610d39565b86831015610d7b5784890151610d77601f891682610c8a565b8355505b6001600288020188555050505b505050505050565b7f4e487b71000000000000000000000000000000000000000000000000000000005f52601160045260245ffd5b5f610dc78261087d565b9150610dd28361087d565b9250828203905081811115610dea57610de9610d90565b5b92915050565b5f82825260208201905092915050565b5f610e0a82610903565b610e148185610df0565b9350610e2481856020860161091d565b610e2d816106a5565b840191505092915050565b5f6080820190508181035f830152610e508187610e00565b90508181036020830152610e648186610e00565b90508181036040830152610e788185610e00565b9050610e876060830184610886565b95945050505050565b7f496e76616c696420646f63756d656e7420696e6465782e0000000000000000005f82015250565b5f610ec4601783610df0565b9150610ecf82610e90565b602082019050919050565b5f6020820190508181035f830152610ef181610eb8565b9050919050565b7f4e487b71000000000000000000000000000000000000000000000000000000005f52603260045260245ffdfea264697066735822122090714e0f12a477bebf7591c089c18a32e0ecfa48fe4c2f7c7523f6a9098cd5b364736f6c63430008140033",
			"opcodes": "PUSH1 0x80 PUSH1 0x40 MSTORE CALLVALUE DUP1 ISZERO PUSH3 0x10 JUMPI PUSH0 DUP1 REVERT JUMPDEST POP PUSH1 0x40 MLOAD PUSH3 0x11AE CODESIZE SUB DUP1 PUSH3 0x11AE DUP4 CODECOPY DUP2 DUP2 ADD PUSH1 0x40 MSTORE DUP2 ADD SWAP1 PUSH3 0x36 SWAP2 SWAP1 PUSH3 0x1E9 JUMP JUMPDEST DUP1 PUSH0 PUSH20 0xFFFFFFFFFFFFFFFFFFFFFFFFFFFFFFFFFFFFFFFF AND DUP2 PUSH20 0xFFFFFFFFFFFFFFFFFFFFFFFFFFFFFFFFFFFFFFFF AND SUB PUSH3 0xAA JUMPI PUSH0 PUSH1 0x40 MLOAD PUSH32 0x1E4FBDF700000000000000000000000000000000000000000000000000000000 DUP2 MSTORE PUSH1 0x4 ADD PUSH3 0xA1 SWAP2 SWAP1 PUSH3 0x22A JUMP JUMPDEST PUSH1 0x40 MLOAD DUP1 SWAP2 SUB SWAP1 REVERT JUMPDEST PUSH3 0xBB DUP2 PUSH3 0xC3 PUSH1 0x20 SHL PUSH1 0x20 SHR JUMP JUMPDEST POP POP PUSH3 0x245 JUMP JUMPDEST PUSH0 DUP1 PUSH0 SWAP1 SLOAD SWAP1 PUSH2 0x100 EXP SWAP1 DIV PUSH20 0xFFFFFFFFFFFFFFFFFFFFFFFFFFFFFFFFFFFFFFFF AND SWAP1 POP DUP2 PUSH0 DUP1 PUSH2 0x100 EXP DUP2 SLOAD DUP2 PUSH20 0xFFFFFFFFFFFFFFFFFFFFFFFFFFFFFFFFFFFFFFFF MUL NOT AND SWAP1 DUP4 PUSH20 0xFFFFFFFFFFFFFFFFFFFFFFFFFFFFFFFFFFFFFFFF AND MUL OR SWAP1 SSTORE POP DUP2 PUSH20 0xFFFFFFFFFFFFFFFFFFFFFFFFFFFFFFFFFFFFFFFF AND DUP2 PUSH20 0xFFFFFFFFFFFFFFFFFFFFFFFFFFFFFFFFFFFFFFFF AND PUSH32 0x8BE0079C531659141344CD1FD0A4F28419497F9722A3DAAFE3B4186F6B6457E0 PUSH1 0x40 MLOAD PUSH1 0x40 MLOAD DUP1 SWAP2 SUB SWAP1 LOG3 POP POP JUMP JUMPDEST PUSH0 DUP1 REVERT JUMPDEST PUSH0 PUSH20 0xFFFFFFFFFFFFFFFFFFFFFFFFFFFFFFFFFFFFFFFF DUP3 AND SWAP1 POP SWAP2 SWAP1 POP JUMP JUMPDEST PUSH0 PUSH3 0x1B3 DUP3 PUSH3 0x188 JUMP JUMPDEST SWAP1 POP SWAP2 SWAP1 POP JUMP JUMPDEST PUSH3 0x1C5 DUP2 PUSH3 0x1A7 JUMP JUMPDEST DUP2 EQ PUSH3 0x1D0 JUMPI PUSH0 DUP1 REVERT JUMPDEST POP JUMP JUMPDEST PUSH0 DUP2 MLOAD SWAP1 POP PUSH3 0x1E3 DUP2 PUSH3 0x1BA JUMP JUMPDEST SWAP3 SWAP2 POP POP JUMP JUMPDEST PUSH0 PUSH1 0x20 DUP3 DUP5 SUB SLT ISZERO PUSH3 0x201 JUMPI PUSH3 0x200 PUSH3 0x184 JUMP JUMPDEST JUMPDEST PUSH0 PUSH3 0x210 DUP5 DUP3 DUP6 ADD PUSH3 0x1D3 JUMP JUMPDEST SWAP2 POP POP SWAP3 SWAP2 POP POP JUMP JUMPDEST PUSH3 0x224 DUP2 PUSH3 0x1A7 JUMP JUMPDEST DUP3 MSTORE POP POP JUMP JUMPDEST PUSH0 PUSH1 0x20 DUP3 ADD SWAP1 POP PUSH3 0x23F PUSH0 DUP4 ADD DUP5 PUSH3 0x219 JUMP JUMPDEST SWAP3 SWAP2 POP POP JUMP JUMPDEST PUSH2 0xF5B DUP1 PUSH3 0x253 PUSH0 CODECOPY PUSH0 RETURN INVALID PUSH1 0x80 PUSH1 0x40 MSTORE CALLVALUE DUP1 ISZERO PUSH2 0xF JUMPI PUSH0 DUP1 REVERT JUMPDEST POP PUSH1 0x4 CALLDATASIZE LT PUSH2 0x60 JUMPI PUSH0 CALLDATALOAD PUSH1 0xE0 SHR DUP1 PUSH4 0x36A8915B EQ PUSH2 0x64 JUMPI DUP1 PUSH4 0x3D1C2273 EQ PUSH2 0x80 JUMPI DUP1 PUSH4 0x3F9B250A EQ PUSH2 0x9E JUMPI DUP1 PUSH4 0x715018A6 EQ PUSH2 0xCE JUMPI DUP1 PUSH4 0x8DA5CB5B EQ PUSH2 0xD8 JUMPI DUP1 PUSH4 0xF2FDE38B EQ PUSH2 0xF6 JUMPI JUMPDEST PUSH0 DUP1 REVERT JUMPDEST PUSH2 0x7E PUSH1 0x4 DUP1 CALLDATASIZE SUB DUP2 ADD SWAP1 PUSH2 0x79 SWAP2 SWAP1 PUSH2 0x7D9 JUMP JUMPDEST PUSH2 0x112 JUMP JUMPDEST STOP JUMPDEST PUSH2 0x88 PUSH2 0x202 JUMP JUMPDEST PUSH1 0x40 MLOAD PUSH2 0x95 SWAP2 SWAP1 PUSH2 0x895 JUMP JUMPDEST PUSH1 0x40 MLOAD DUP1 SWAP2 SUB SWAP1 RETURN JUMPDEST PUSH2 0xB8 PUSH1 0x4 DUP1 CALLDATASIZE SUB DUP2 ADD SWAP1 PUSH2 0xB3 SWAP2 SWAP1 PUSH2 0x8D8 JUMP JUMPDEST PUSH2 0x216 JUMP JUMPDEST PUSH1 0x40 MLOAD PUSH2 0xC5 SWAP2 SWAP1 PUSH2 0x9FA JUMP JUMPDEST PUSH1 0x40 MLOAD DUP1 SWAP2 SUB SWAP1 RETURN JUMPDEST PUSH2 0xD6 PUSH2 0x458 JUMP JUMPDEST STOP JUMPDEST PUSH2 0xE0 PUSH2 0x46B JUMP JUMPDEST PUSH1 0x40 MLOAD PUSH2 0xED SWAP2 SWAP1 PUSH2 0xA59 JUMP JUMPDEST PUSH1 0x40 MLOAD DUP1 SWAP2 SUB SWAP1 RETURN JUMPDEST PUSH2 0x110 PUSH1 0x4 DUP1 CALLDATASIZE SUB DUP2 ADD SWAP1 PUSH2 0x10B SWAP2 SWAP1 PUSH2 0xA9C JUMP JUMPDEST PUSH2 0x492 JUMP JUMPDEST STOP JUMPDEST PUSH2 0x11A PUSH2 0x516 JUMP JUMPDEST PUSH1 0x1 PUSH1 0x40 MLOAD DUP1 PUSH1 0x80 ADD PUSH1 0x40 MSTORE DUP1 DUP6 DUP2 MSTORE PUSH1 0x20 ADD DUP5 DUP2 MSTORE PUSH1 0x20 ADD DUP4 DUP2 MSTORE PUSH1 0x20 ADD TIMESTAMP DUP2 MSTORE POP SWAP1 DUP1 PUSH1 0x1 DUP2 SLOAD ADD DUP1 DUP3 SSTORE DUP1 SWAP2 POP POP PUSH1 0x1 SWAP1 SUB SWAP1 PUSH0 MSTORE PUSH1 0x20 PUSH0 KECCAK256 SWAP1 PUSH1 0x4 MUL ADD PUSH0 SWAP1 SWAP2 SWAP1 SWAP2 SWAP1 SWAP2 POP PUSH0 DUP3 ADD MLOAD DUP2 PUSH0 ADD SWAP1 DUP2 PUSH2 0x176 SWAP2 SWAP1 PUSH2 0xCC1 JUMP JUMPDEST POP PUSH1 0x20 DUP3 ADD MLOAD DUP2 PUSH1 0x1 ADD SWAP1 DUP2 PUSH2 0x18C SWAP2 SWAP1 PUSH2 0xCC1 JUMP JUMPDEST POP PUSH1 0x40 DUP3 ADD MLOAD DUP2 PUSH1 0x2 ADD SWAP1 DUP2 PUSH2 0x1A2 SWAP2 SWAP1 PUSH2 0xCC1 JUMP JUMPDEST POP PUSH1 0x60 DUP3 ADD MLOAD DUP2 PUSH1 0x3 ADD SSTORE POP POP PUSH1 0x1 DUP1 DUP1 SLOAD SWAP1 POP PUSH2 0x1C0 SWAP2 SWAP1 PUSH2 0xDBD JUMP JUMPDEST PUSH32 0xC77D6C3093084AFC6756BAA1074EB3001F489AF9B0DE3E3054FDEADF6DA043C9 DUP5 DUP5 DUP5 TIMESTAMP PUSH1 0x40 MLOAD PUSH2 0x1F5 SWAP5 SWAP4 SWAP3 SWAP2 SWAP1 PUSH2 0xE38 JUMP JUMPDEST PUSH1 0x40 MLOAD DUP1 SWAP2 SUB SWAP1 LOG2 POP POP POP JUMP JUMPDEST PUSH0 PUSH2 0x20B PUSH2 0x516 JUMP JUMPDEST PUSH1 0x1 DUP1 SLOAD SWAP1 POP SWAP1 POP SWAP1 JUMP JUMPDEST PUSH2 0x21E PUSH2 0x665 JUMP JUMPDEST PUSH2 0x226 PUSH2 0x516 JUMP JUMPDEST PUSH1 0x1 DUP1 SLOAD SWAP1 POP DUP3 LT PUSH2 0x26D JUMPI PUSH1 0x40 MLOAD PUSH32 0x8C379A000000000000000000000000000000000000000000000000000000000 DUP2 MSTORE PUSH1 0x4 ADD PUSH2 0x264 SWAP1 PUSH2 0xEDA JUMP JUMPDEST PUSH1 0x40 MLOAD DUP1 SWAP2 SUB SWAP1 REVERT JUMPDEST PUSH1 0x1 DUP3 DUP2 SLOAD DUP2 LT PUSH2 0x281 JUMPI PUSH2 0x280 PUSH2 0xEF8 JUMP JUMPDEST JUMPDEST SWAP1 PUSH0 MSTORE PUSH1 0x20 PUSH0 KECCAK256 SWAP1 PUSH1 0x4 MUL ADD PUSH1 0x40 MLOAD DUP1 PUSH1 0x80 ADD PUSH1 0x40 MSTORE SWAP1 DUP2 PUSH0 DUP3 ADD DUP1 SLOAD PUSH2 0x2A7 SWAP1 PUSH2 0xAF4 JUMP JUMPDEST DUP1 PUSH1 0x1F ADD PUSH1 0x20 DUP1 SWAP2 DIV MUL PUSH1 0x20 ADD PUSH1 0x40 MLOAD SWAP1 DUP2 ADD PUSH1 0x40 MSTORE DUP1 SWAP3 SWAP2 SWAP1 DUP2 DUP2 MSTORE PUSH1 0x20 ADD DUP3 DUP1 SLOAD PUSH2 0x2D3 SWAP1 PUSH2 0xAF4 JUMP JUMPDEST DUP1 ISZERO PUSH2 0x31E JUMPI DUP1 PUSH1 0x1F LT PUSH2 0x2F5 JUMPI PUSH2 0x100 DUP1 DUP4 SLOAD DIV MUL DUP4 MSTORE SWAP2 PUSH1 0x20 ADD SWAP2 PUSH2 0x31E JUMP JUMPDEST DUP3 ADD SWAP2 SWAP1 PUSH0 MSTORE PUSH1 0x20 PUSH0 KECCAK256 SWAP1 JUMPDEST DUP2 SLOAD DUP2 MSTORE SWAP1 PUSH1 0x1 ADD SWAP1 PUSH1 0x20 ADD DUP1 DUP4 GT PUSH2 0x301 JUMPI DUP3 SWAP1 SUB PUSH1 0x1F AND DUP3 ADD SWAP2 JUMPDEST POP POP POP POP POP DUP2 MSTORE PUSH1 0x20 ADD PUSH1 0x1 DUP3 ADD DUP1 SLOAD PUSH2 0x337 SWAP1 PUSH2 0xAF4 JUMP JUMPDEST DUP1 PUSH1 0x1F ADD PUSH1 0x20 DUP1 SWAP2 DIV MUL PUSH1 0x20 ADD PUSH1 0x40 MLOAD SWAP1 DUP2 ADD PUSH1 0x40 MSTORE DUP1 SWAP3 SWAP2 SWAP1 DUP2 DUP2 MSTORE PUSH1 0x20 ADD DUP3 DUP1 SLOAD PUSH2 0x363 SWAP1 PUSH2 0xAF4 JUMP JUMPDEST DUP1 ISZERO PUSH2 0x3AE JUMPI DUP1 PUSH1 0x1F LT PUSH2 0x385 JUMPI PUSH2 0x100 DUP1 DUP4 SLOAD DIV MUL DUP4 MSTORE SWAP2 PUSH1 0x20 ADD SWAP2 PUSH2 0x3AE JUMP JUMPDEST DUP3 ADD SWAP2 SWAP1 PUSH0 MSTORE PUSH1 0x20 PUSH0 KECCAK256 SWAP1 JUMPDEST DUP2 SLOAD DUP2 MSTORE SWAP1 PUSH1 0x1 ADD SWAP1 PUSH1 0x20 ADD DUP1 DUP4 GT PUSH2 0x391 JUMPI DUP3 SWAP1 SUB PUSH1 0x1F AND DUP3 ADD SWAP2 JUMPDEST POP POP POP POP POP DUP2 MSTORE PUSH1 0x20 ADD PUSH1 0x2 DUP3 ADD DUP1 SLOAD PUSH2 0x3C7 SWAP1 PUSH2 0xAF4 JUMP JUMPDEST DUP1 PUSH1 0x1F ADD PUSH1 0x20 DUP1 SWAP2 DIV MUL PUSH1 0x20 ADD PUSH1 0x40 MLOAD SWAP1 DUP2 ADD PUSH1 0x40 MSTORE DUP1 SWAP3 SWAP2 SWAP1 DUP2 DUP2 MSTORE PUSH1 0x20 ADD DUP3 DUP1 SLOAD PUSH2 0x3F3 SWAP1 PUSH2 0xAF4 JUMP JUMPDEST DUP1 ISZERO PUSH2 0x43E JUMPI DUP1 PUSH1 0x1F LT PUSH2 0x415 JUMPI PUSH2 0x100 DUP1 DUP4 SLOAD DIV MUL DUP4 MSTORE SWAP2 PUSH1 0x20 ADD SWAP2 PUSH2 0x43E JUMP JUMPDEST DUP3 ADD SWAP2 SWAP1 PUSH0 MSTORE PUSH1 0x20 PUSH0 KECCAK256 SWAP1 JUMPDEST DUP2 SLOAD DUP2 MSTORE SWAP1 PUSH1 0x1 ADD SWAP1 PUSH1 0x20 ADD DUP1 DUP4 GT PUSH2 0x421 JUMPI DUP3 SWAP1 SUB PUSH1 0x1F AND DUP3 ADD SWAP2 JUMPDEST POP POP POP POP POP DUP2 MSTORE PUSH1 0x20 ADD PUSH1 0x3 DUP3 ADD SLOAD DUP2 MSTORE POP POP SWAP1 POP SWAP2 SWAP1 POP JUMP JUMPDEST PUSH2 0x460 PUSH2 0x516 JUMP JUMPDEST PUSH2 0x469 PUSH0 PUSH2 0x59D JUMP JUMPDEST JUMP JUMPDEST PUSH0 DUP1 PUSH0 SWAP1 SLOAD SWAP1 PUSH2 0x100 EXP SWAP1 DIV PUSH20 0xFFFFFFFFFFFFFFFFFFFFFFFFFFFFFFFFFFFFFFFF AND SWAP1 POP SWAP1 JUMP JUMPDEST PUSH2 0x49A PUSH2 0x516 JUMP JUMPDEST PUSH0 PUSH20 0xFFFFFFFFFFFFFFFFFFFFFFFFFFFFFFFFFFFFFFFF AND DUP2 PUSH20 0xFFFFFFFFFFFFFFFFFFFFFFFFFFFFFFFFFFFFFFFF AND SUB PUSH2 0x50A JUMPI PUSH0 PUSH1 0x40 MLOAD PUSH32 0x1E4FBDF700000000000000000000000000000000000000000000000000000000 DUP2 MSTORE PUSH1 0x4 ADD PUSH2 0x501 SWAP2 SWAP1 PUSH2 0xA59 JUMP JUMPDEST PUSH1 0x40 MLOAD DUP1 SWAP2 SUB SWAP1 REVERT JUMPDEST PUSH2 0x513 DUP2 PUSH2 0x59D JUMP JUMPDEST POP JUMP JUMPDEST PUSH2 0x51E PUSH2 0x65E JUMP JUMPDEST PUSH20 0xFFFFFFFFFFFFFFFFFFFFFFFFFFFFFFFFFFFFFFFF AND PUSH2 0x53C PUSH2 0x46B JUMP JUMPDEST PUSH20 0xFFFFFFFFFFFFFFFFFFFFFFFFFFFFFFFFFFFFFFFF AND EQ PUSH2 0x59B JUMPI PUSH2 0x55F PUSH2 0x65E JUMP JUMPDEST PUSH1 0x40 MLOAD PUSH32 0x118CDAA700000000000000000000000000000000000000000000000000000000 DUP2 MSTORE PUSH1 0x4 ADD PUSH2 0x592 SWAP2 SWAP1 PUSH2 0xA59 JUMP JUMPDEST PUSH1 0x40 MLOAD DUP1 SWAP2 SUB SWAP1 REVERT JUMPDEST JUMP JUMPDEST PUSH0 DUP1 PUSH0 SWAP1 SLOAD SWAP1 PUSH2 0x100 EXP SWAP1 DIV PUSH20 0xFFFFFFFFFFFFFFFFFFFFFFFFFFFFFFFFFFFFFFFF AND SWAP1 POP DUP2 PUSH0 DUP1 PUSH2 0x100 EXP DUP2 SLOAD DUP2 PUSH20 0xFFFFFFFFFFFFFFFFFFFFFFFFFFFFFFFFFFFFFFFF MUL NOT AND SWAP1 DUP4 PUSH20 0xFFFFFFFFFFFFFFFFFFFFFFFFFFFFFFFFFFFFFFFF AND MUL OR SWAP1 SSTORE POP DUP2 PUSH20 0xFFFFFFFFFFFFFFFFFFFFFFFFFFFFFFFFFFFFFFFF AND DUP2 PUSH20 0xFFFFFFFFFFFFFFFFFFFFFFFFFFFFFFFFFFFFFFFF AND PUSH32 0x8BE0079C531659141344CD1FD0A4F28419497F9722A3DAAFE3B4186F6B6457E0 PUSH1 0x40 MLOAD PUSH1 0x40 MLOAD DUP1 SWAP2 SUB SWAP1 LOG3 POP POP JUMP JUMPDEST PUSH0 CALLER SWAP1 POP SWAP1 JUMP JUMPDEST PUSH1 0x40 MLOAD DUP1 PUSH1 0x80 ADD PUSH1 0x40 MSTORE DUP1 PUSH1 0x60 DUP2 MSTORE PUSH1 0x20 ADD PUSH1 0x60 DUP2 MSTORE PUSH1 0x20 ADD PUSH1 0x60 DUP2 MSTORE PUSH1 0x20 ADD PUSH0 DUP2 MSTORE POP SWAP1 JUMP JUMPDEST PUSH0 PUSH1 0x40 MLOAD SWAP1 POP SWAP1 JUMP JUMPDEST PUSH0 DUP1 REVERT JUMPDEST PUSH0 DUP1 REVERT JUMPDEST PUSH0 DUP1 REVERT JUMPDEST PUSH0 DUP1 REVERT JUMPDEST PUSH0 PUSH1 0x1F NOT PUSH1 0x1F DUP4 ADD AND SWAP1 POP SWAP2 SWAP1 POP JUMP JUMPDEST PUSH32 0x4E487B7100000000000000000000000000000000000000000000000000000000 PUSH0 MSTORE PUSH1 0x41 PUSH1 0x4 MSTORE PUSH1 0x24 PUSH0 REVERT JUMPDEST PUSH2 0x6EB DUP3 PUSH2 0x6A5 JUMP JUMPDEST DUP2 ADD DUP2 DUP2 LT PUSH8 0xFFFFFFFFFFFFFFFF DUP3 GT OR ISZERO PUSH2 0x70A JUMPI PUSH2 0x709 PUSH2 0x6B5 JUMP JUMPDEST JUMPDEST DUP1 PUSH1 0x40 MSTORE POP POP POP JUMP JUMPDEST PUSH0 PUSH2 0x71C PUSH2 0x68C JUMP JUMPDEST SWAP1 POP PUSH2 0x728 DUP3 DUP3 PUSH2 0x6E2 JUMP JUMPDEST SWAP2 SWAP1 POP JUMP JUMPDEST PUSH0 PUSH8 0xFFFFFFFFFFFFFFFF DUP3 GT ISZERO PUSH2 0x747 JUMPI PUSH2 0x746 PUSH2 0x6B5 JUMP JUMPDEST JUMPDEST PUSH2 0x750 DUP3 PUSH2 0x6A5 JUMP JUMPDEST SWAP1 POP PUSH1 0x20 DUP2 ADD SWAP1 POP SWAP2 SWAP1 POP JUMP JUMPDEST DUP3 DUP2 DUP4 CALLDATACOPY PUSH0 DUP4 DUP4 ADD MSTORE POP POP POP JUMP JUMPDEST PUSH0 PUSH2 0x77D PUSH2 0x778 DUP5 PUSH2 0x72D JUMP JUMPDEST PUSH2 0x713 JUMP JUMPDEST SWAP1 POP DUP3 DUP2 MSTORE PUSH1 0x20 DUP2 ADD DUP5 DUP5 DUP5 ADD GT ISZERO PUSH2 0x799 JUMPI PUSH2 0x798 PUSH2 0x6A1 JUMP JUMPDEST JUMPDEST PUSH2 0x7A4 DUP5 DUP3 DUP6 PUSH2 0x75D JUMP JUMPDEST POP SWAP4 SWAP3 POP POP POP JUMP JUMPDEST PUSH0 DUP3 PUSH1 0x1F DUP4 ADD SLT PUSH2 0x7C0 JUMPI PUSH2 0x7BF PUSH2 0x69D JUMP JUMPDEST JUMPDEST DUP2 CALLDATALOAD PUSH2 0x7D0 DUP5 DUP3 PUSH1 0x20 DUP7 ADD PUSH2 0x76B JUMP JUMPDEST SWAP2 POP POP SWAP3 SWAP2 POP POP JUMP JUMPDEST PUSH0 DUP1 PUSH0 PUSH1 0x60 DUP5 DUP7 SUB SLT ISZERO PUSH2 0x7F0 JUMPI PUSH2 0x7EF PUSH2 0x695 JUMP JUMPDEST JUMPDEST PUSH0 DUP5 ADD CALLDATALOAD PUSH8 0xFFFFFFFFFFFFFFFF DUP2 GT ISZERO PUSH2 0x80D JUMPI PUSH2 0x80C PUSH2 0x699 JUMP JUMPDEST JUMPDEST PUSH2 0x819 DUP7 DUP3 DUP8 ADD PUSH2 0x7AC JUMP JUMPDEST SWAP4 POP POP PUSH1 0x20 DUP5 ADD CALLDATALOAD PUSH8 0xFFFFFFFFFFFFFFFF DUP2 GT ISZERO PUSH2 0x83A JUMPI PUSH2 0x839 PUSH2 0x699 JUMP JUMPDEST JUMPDEST PUSH2 0x846 DUP7 DUP3 DUP8 ADD PUSH2 0x7AC JUMP JUMPDEST SWAP3 POP POP PUSH1 0x40 DUP5 ADD CALLDATALOAD PUSH8 0xFFFFFFFFFFFFFFFF DUP2 GT ISZERO PUSH2 0x867 JUMPI PUSH2 0x866 PUSH2 0x699 JUMP JUMPDEST JUMPDEST PUSH2 0x873 DUP7 DUP3 DUP8 ADD PUSH2 0x7AC JUMP JUMPDEST SWAP2 POP POP SWAP3 POP SWAP3 POP SWAP3 JUMP JUMPDEST PUSH0 DUP2 SWAP1 POP SWAP2 SWAP1 POP JUMP JUMPDEST PUSH2 0x88F DUP2 PUSH2 0x87D JUMP JUMPDEST DUP3 MSTORE POP POP JUMP JUMPDEST PUSH0 PUSH1 0x20 DUP3 ADD SWAP1 POP PUSH2 0x8A8 PUSH0 DUP4 ADD DUP5 PUSH2 0x886 JUMP JUMPDEST SWAP3 SWAP2 POP POP JUMP JUMPDEST PUSH2 0x8B7 DUP2 PUSH2 0x87D JUMP JUMPDEST DUP2 EQ PUSH2 0x8C1 JUMPI PUSH0 DUP1 REVERT JUMPDEST POP JUMP JUMPDEST PUSH0 DUP2 CALLDATALOAD SWAP1 POP PUSH2 0x8D2 DUP2 PUSH2 0x8AE JUMP JUMPDEST SWAP3 SWAP2 POP POP JUMP JUMPDEST PUSH0 PUSH1 0x20 DUP3 DUP5 SUB SLT ISZERO PUSH2 0x8ED JUMPI PUSH2 0x8EC PUSH2 0x695 JUMP JUMPDEST JUMPDEST PUSH0 PUSH2 0x8FA DUP5 DUP3 DUP6 ADD PUSH2 0x8C4 JUMP JUMPDEST SWAP2 POP POP SWAP3 SWAP2 POP POP JUMP JUMPDEST PUSH0 DUP2 MLOAD SWAP1 POP SWAP2 SWAP1 POP JUMP JUMPDEST PUSH0 DUP3 DUP3 MSTORE PUSH1 0x20 DUP3 ADD SWAP1 POP SWAP3 SWAP2 POP POP JUMP JUMPDEST PUSH0 JUMPDEST DUP4 DUP2 LT ISZERO PUSH2 0x93A JUMPI DUP1 DUP3 ADD MLOAD DUP2 DUP5 ADD MSTORE PUSH1 0x20 DUP2 ADD SWAP1 POP PUSH2 0x91F JUMP JUMPDEST PUSH0 DUP5 DUP5 ADD MSTORE POP POP POP POP JUMP JUMPDEST PUSH0 PUSH2 0x94F DUP3 PUSH2 0x903 JUMP JUMPDEST PUSH2 0x959 DUP2 DUP6 PUSH2 0x90D JUMP JUMPDEST SWAP4 POP PUSH2 0x969 DUP2 DUP6 PUSH1 0x20 DUP7 ADD PUSH2 0x91D JUMP JUMPDEST PUSH2 0x972 DUP2 PUSH2 0x6A5 JUMP JUMPDEST DUP5 ADD SWAP2 POP POP SWAP3 SWAP2 POP POP JUMP JUMPDEST PUSH2 0x986 DUP2 PUSH2 0x87D JUMP JUMPDEST DUP3 MSTORE POP POP JUMP JUMPDEST PUSH0 PUSH1 0x80 DUP4 ADD PUSH0 DUP4 ADD MLOAD DUP5 DUP3 SUB PUSH0 DUP7 ADD MSTORE PUSH2 0x9A6 DUP3 DUP3 PUSH2 0x945 JUMP JUMPDEST SWAP2 POP POP PUSH1 0x20 DUP4 ADD MLOAD DUP5 DUP3 SUB PUSH1 0x20 DUP7 ADD MSTORE PUSH2 0x9C0 DUP3 DUP3 PUSH2 0x945 JUMP JUMPDEST SWAP2 POP POP PUSH1 0x40 DUP4 ADD MLOAD DUP5 DUP3 SUB PUSH1 0x40 DUP7 ADD MSTORE PUSH2 0x9DA DUP3 DUP3 PUSH2 0x945 JUMP JUMPDEST SWAP2 POP POP PUSH1 0x60 DUP4 ADD MLOAD PUSH2 0x9EF PUSH1 0x60 DUP7 ADD DUP3 PUSH2 0x97D JUMP JUMPDEST POP DUP1 SWAP2 POP POP SWAP3 SWAP2 POP POP JUMP JUMPDEST PUSH0 PUSH1 0x20 DUP3 ADD SWAP1 POP DUP2 DUP2 SUB PUSH0 DUP4 ADD MSTORE PUSH2 0xA12 DUP2 DUP5 PUSH2 0x98C JUMP JUMPDEST SWAP1 POP SWAP3 SWAP2 POP POP JUMP JUMPDEST PUSH0 PUSH20 0xFFFFFFFFFFFFFFFFFFFFFFFFFFFFFFFFFFFFFFFF DUP3 AND SWAP1 POP SWAP2 SWAP1 POP JUMP JUMPDEST PUSH0 PUSH2 0xA43 DUP3 PUSH2 0xA1A JUMP JUMPDEST SWAP1 POP SWAP2 SWAP1 POP JUMP JUMPDEST PUSH2 0xA53 DUP2 PUSH2 0xA39 JUMP JUMPDEST DUP3 MSTORE POP POP JUMP JUMPDEST PUSH0 PUSH1 0x20 DUP3 ADD SWAP1 POP PUSH2 0xA6C PUSH0 DUP4 ADD DUP5 PUSH2 0xA4A JUMP JUMPDEST SWAP3 SWAP2 POP POP JUMP JUMPDEST PUSH2 0xA7B DUP2 PUSH2 0xA39 JUMP JUMPDEST DUP2 EQ PUSH2 0xA85 JUMPI PUSH0 DUP1 REVERT JUMPDEST POP JUMP JUMPDEST PUSH0 DUP2 CALLDATALOAD SWAP1 POP PUSH2 0xA96 DUP2 PUSH2 0xA72 JUMP JUMPDEST SWAP3 SWAP2 POP POP JUMP JUMPDEST PUSH0 PUSH1 0x20 DUP3 DUP5 SUB SLT ISZERO PUSH2 0xAB1 JUMPI PUSH2 0xAB0 PUSH2 0x695 JUMP JUMPDEST JUMPDEST PUSH0 PUSH2 0xABE DUP5 DUP3 DUP6 ADD PUSH2 0xA88 JUMP JUMPDEST SWAP2 POP POP SWAP3 SWAP2 POP POP JUMP JUMPDEST PUSH32 0x4E487B7100000000000000000000000000000000000000000000000000000000 PUSH0 MSTORE PUSH1 0x22 PUSH1 0x4 MSTORE PUSH1 0x24 PUSH0 REVERT JUMPDEST PUSH0 PUSH1 0x2 DUP3 DIV SWAP1 POP PUSH1 0x1 DUP3 AND DUP1 PUSH2 0xB0B JUMPI PUSH1 0x7F DUP3 AND SWAP2 POP JUMPDEST PUSH1 0x20 DUP3 LT DUP2 SUB PUSH2 0xB1E JUMPI PUSH2 0xB1D PUSH2 0xAC7 JUMP JUMPDEST JUMPDEST POP SWAP2 SWAP1 POP JUMP JUMPDEST PUSH0 DUP2 SWAP1 POP DUP2 PUSH0 MSTORE PUSH1 0x20 PUSH0 KECCAK256 SWAP1 POP SWAP2 SWAP1 POP JUMP JUMPDEST PUSH0 PUSH1 0x20 PUSH1 0x1F DUP4 ADD DIV SWAP1 POP SWAP2 SWAP1 POP JUMP JUMPDEST PUSH0 DUP3 DUP3 SHL SWAP1 POP SWAP3 SWAP2 POP POP JUMP JUMPDEST PUSH0 PUSH1 0x8 DUP4 MUL PUSH2 0xB80 PUSH32 0xFFFFFFFFFFFFFFFFFFFFFFFFFFFFFFFFFFFFFFFFFFFFFFFFFFFFFFFFFFFFFFFF DUP3 PUSH2 0xB45 JUMP JUMPDEST PUSH2 0xB8A DUP7 DUP4 PUSH2 0xB45 JUMP JUMPDEST SWAP6 POP DUP1 NOT DUP5 AND SWAP4 POP DUP1 DUP7 AND DUP5 OR SWAP3 POP POP POP SWAP4 SWAP3 POP POP POP JUMP JUMPDEST PUSH0 DUP2 SWAP1 POP SWAP2 SWAP1 POP JUMP JUMPDEST PUSH0 PUSH2 0xBC5 PUSH2 0xBC0 PUSH2 0xBBB DUP5 PUSH2 0x87D JUMP JUMPDEST PUSH2 0xBA2 JUMP JUMPDEST PUSH2 0x87D JUMP JUMPDEST SWAP1 POP SWAP2 SWAP1 POP JUMP JUMPDEST PUSH0 DUP2 SWAP1 POP SWAP2 SWAP1 POP JUMP JUMPDEST PUSH2 0xBDE DUP4 PUSH2 0xBAB JUMP JUMPDEST PUSH2 0xBF2 PUSH2 0xBEA DUP3 PUSH2 0xBCC JUMP JUMPDEST DUP5 DUP5 SLOAD PUSH2 0xB51 JUMP JUMPDEST DUP3 SSTORE POP POP POP POP JUMP JUMPDEST PUSH0 SWAP1 JUMP JUMPDEST PUSH2 0xC06 PUSH2 0xBFA JUMP JUMPDEST PUSH2 0xC11 DUP2 DUP5 DUP5 PUSH2 0xBD5 JUMP JUMPDEST POP POP POP JUMP JUMPDEST JUMPDEST DUP2 DUP2 LT ISZERO PUSH2 0xC34 JUMPI PUSH2 0xC29 PUSH0 DUP3 PUSH2 0xBFE JUMP JUMPDEST PUSH1 0x1 DUP2 ADD SWAP1 POP PUSH2 0xC17 JUMP JUMPDEST POP POP JUMP JUMPDEST PUSH1 0x1F DUP3 GT ISZERO PUSH2 0xC79 JUMPI PUSH2 0xC4A DUP2 PUSH2 0xB24 JUMP JUMPDEST PUSH2 0xC53 DUP5 PUSH2 0xB36 JUMP JUMPDEST DUP2 ADD PUSH1 0x20 DUP6 LT ISZERO PUSH2 0xC62 JUMPI DUP2 SWAP1 POP JUMPDEST PUSH2 0xC76 PUSH2 0xC6E DUP6 PUSH2 0xB36 JUMP JUMPDEST DUP4 ADD DUP3 PUSH2 0xC16 JUMP JUMPDEST POP POP JUMPDEST POP POP POP JUMP JUMPDEST PUSH0 DUP3 DUP3 SHR SWAP1 POP SWAP3 SWAP2 POP POP JUMP JUMPDEST PUSH0 PUSH2 0xC99 PUSH0 NOT DUP5 PUSH1 0x8 MUL PUSH2 0xC7E JUMP JUMPDEST NOT DUP1 DUP4 AND SWAP2 POP POP SWAP3 SWAP2 POP POP JUMP JUMPDEST PUSH0 PUSH2 0xCB1 DUP4 DUP4 PUSH2 0xC8A JUMP JUMPDEST SWAP2 POP DUP3 PUSH1 0x2 MUL DUP3 OR SWAP1 POP SWAP3 SWAP2 POP POP JUMP JUMPDEST PUSH2 0xCCA DUP3 PUSH2 0x903 JUMP JUMPDEST PUSH8 0xFFFFFFFFFFFFFFFF DUP2 GT ISZERO PUSH2 0xCE3 JUMPI PUSH2 0xCE2 PUSH2 0x6B5 JUMP JUMPDEST JUMPDEST PUSH2 0xCED DUP3 SLOAD PUSH2 0xAF4 JUMP JUMPDEST PUSH2 0xCF8 DUP3 DUP3 DUP6 PUSH2 0xC38 JUMP JUMPDEST PUSH0 PUSH1 0x20 SWAP1 POP PUSH1 0x1F DUP4 GT PUSH1 0x1 DUP2 EQ PUSH2 0xD29 JUMPI PUSH0 DUP5 ISZERO PUSH2 0xD17 JUMPI DUP3 DUP8 ADD MLOAD SWAP1 POP JUMPDEST PUSH2 0xD21 DUP6 DUP3 PUSH2 0xCA6 JUMP JUMPDEST DUP7 SSTORE POP PUSH2 0xD88 JUMP JUMPDEST PUSH1 0x1F NOT DUP5 AND PUSH2 0xD37 DUP7 PUSH2 0xB24 JUMP JUMPDEST PUSH0 JUMPDEST DUP3 DUP2 LT ISZERO PUSH2 0xD5E JUMPI DUP5 DUP10 ADD MLOAD DUP3 SSTORE PUSH1 0x1 DUP3 ADD SWAP2 POP PUSH1 0x20 DUP6 ADD SWAP5 POP PUSH1 0x20 DUP2 ADD SWAP1 POP PUSH2 0xD39 JUMP JUMPDEST DUP7 DUP4 LT ISZERO PUSH2 0xD7B JUMPI DUP5 DUP10 ADD MLOAD PUSH2 0xD77 PUSH1 0x1F DUP10 AND DUP3 PUSH2 0xC8A JUMP JUMPDEST DUP4 SSTORE POP JUMPDEST PUSH1 0x1 PUSH1 0x2 DUP9 MUL ADD DUP9 SSTORE POP POP POP JUMPDEST POP POP POP POP POP POP JUMP JUMPDEST PUSH32 0x4E487B7100000000000000000000000000000000000000000000000000000000 PUSH0 MSTORE PUSH1 0x11 PUSH1 0x4 MSTORE PUSH1 0x24 PUSH0 REVERT JUMPDEST PUSH0 PUSH2 0xDC7 DUP3 PUSH2 0x87D JUMP JUMPDEST SWAP2 POP PUSH2 0xDD2 DUP4 PUSH2 0x87D JUMP JUMPDEST SWAP3 POP DUP3 DUP3 SUB SWAP1 POP DUP2 DUP2 GT ISZERO PUSH2 0xDEA JUMPI PUSH2 0xDE9 PUSH2 0xD90 JUMP JUMPDEST JUMPDEST SWAP3 SWAP2 POP POP JUMP JUMPDEST PUSH0 DUP3 DUP3 MSTORE PUSH1 0x20 DUP3 ADD SWAP1 POP SWAP3 SWAP2 POP POP JUMP JUMPDEST PUSH0 PUSH2 0xE0A DUP3 PUSH2 0x903 JUMP JUMPDEST PUSH2 0xE14 DUP2 DUP6 PUSH2 0xDF0 JUMP JUMPDEST SWAP4 POP PUSH2 0xE24 DUP2 DUP6 PUSH1 0x20 DUP7 ADD PUSH2 0x91D JUMP JUMPDEST PUSH2 0xE2D DUP2 PUSH2 0x6A5 JUMP JUMPDEST DUP5 ADD SWAP2 POP POP SWAP3 SWAP2 POP POP JUMP JUMPDEST PUSH0 PUSH1 0x80 DUP3 ADD SWAP1 POP DUP2 DUP2 SUB PUSH0 DUP4 ADD MSTORE PUSH2 0xE50 DUP2 DUP8 PUSH2 0xE00 JUMP JUMPDEST SWAP1 POP DUP2 DUP2 SUB PUSH1 0x20 DUP4 ADD MSTORE PUSH2 0xE64 DUP2 DUP7 PUSH2 0xE00 JUMP JUMPDEST SWAP1 POP DUP2 DUP2 SUB PUSH1 0x40 DUP4 ADD MSTORE PUSH2 0xE78 DUP2 DUP6 PUSH2 0xE00 JUMP JUMPDEST SWAP1 POP PUSH2 0xE87 PUSH1 0x60 DUP4 ADD DUP5 PUSH2 0x886 JUMP JUMPDEST SWAP6 SWAP5 POP POP POP POP POP JUMP JUMPDEST PUSH32 0x496E76616C696420646F63756D656E7420696E6465782E000000000000000000 PUSH0 DUP3 ADD MSTORE POP JUMP JUMPDEST PUSH0 PUSH2 0xEC4 PUSH1 0x17 DUP4 PUSH2 0xDF0 JUMP JUMPDEST SWAP2 POP PUSH2 0xECF DUP3 PUSH2 0xE90 JUMP JUMPDEST PUSH1 0x20 DUP3 ADD SWAP1 POP SWAP2 SWAP1 POP JUMP JUMPDEST PUSH0 PUSH1 0x20 DUP3 ADD SWAP1 POP DUP2 DUP2 SUB PUSH0 DUP4 ADD MSTORE PUSH2 0xEF1 DUP2 PUSH2 0xEB8 JUMP JUMPDEST SWAP1 POP SWAP2 SWAP1 POP JUMP JUMPDEST PUSH32 0x4E487B7100000000000000000000000000000000000000000000000000000000 PUSH0 MSTORE PUSH1 0x32 PUSH1 0x4 MSTORE PUSH1 0x24 PUSH0 REVERT INVALID LOG2 PUSH5 0x6970667358 0x22 SLT KECCAK256 SWAP1 PUSH18 0x4E0F12A477BEBF7591C089C18A32E0ECFA48 INVALID 0x4C 0x2F PUSH29 0x7523F6A9098CD5B364736F6C6343000814003300000000000000000000 "
		},
		"gasEstimates": {
			"creation": {
				"codeDepositCost": "786200",
				"executionCost": "infinite",
				"totalCost": "infinite"
			},
			"external": {
				"addDocument(string,string,string)": "infinite",
				"getDocument(uint256)": "infinite",
				"getDocumentCount()": "infinite",
				"owner()": "2581",
				"renounceOwnership()": "infinite",
				"transferOwnership(address)": "infinite"
			}
		},
		"methodIdentifiers": {
			"addDocument(string,string,string)": "36a8915b",
			"getDocument(uint256)": "3f9b250a",
			"getDocumentCount()": "3d1c2273",
			"owner()": "8da5cb5b",
			"renounceOwnership()": "715018a6",
			"transferOwnership(address)": "f2fde38b"
		}
	},
	"abi": [
		{
			"inputs": [
				{
					"internalType": "address",
					"name": "initialOwner",
					"type": "address"
				}
			],
			"stateMutability": "nonpayable",
			"type": "constructor"
		},
		{
			"inputs": [
				{
					"internalType": "address",
					"name": "owner",
					"type": "address"
				}
			],
			"name": "OwnableInvalidOwner",
			"type": "error"
		},
		{
			"inputs": [
				{
					"internalType": "address",
					"name": "account",
					"type": "address"
				}
			],
			"name": "OwnableUnauthorizedAccount",
			"type": "error"
		},
		{
			"anonymous": false,
			"inputs": [
				{
					"indexed": true,
					"internalType": "uint256",
					"name": "docIndex",
					"type": "uint256"
				},
				{
					"indexed": false,
					"internalType": "string",
					"name": "docHash",
					"type": "string"
				},
				{
					"indexed": false,
					"internalType": "string",
					"name": "healthCardHash",
					"type": "string"
				},
				{
					"indexed": false,
					"internalType": "string",
					"name": "clinicIdHash",
					"type": "string"
				},
				{
					"indexed": false,
					"internalType": "uint256",
					"name": "timestamp",
					"type": "uint256"
				}
			],
			"name": "DocumentAdded",
			"type": "event"
		},
		{
			"anonymous": false,
			"inputs": [
				{
					"indexed": true,
					"internalType": "address",
					"name": "previousOwner",
					"type": "address"
				},
				{
					"indexed": true,
					"internalType": "address",
					"name": "newOwner",
					"type": "address"
				}
			],
			"name": "OwnershipTransferred",
			"type": "event"
		},
		{
			"inputs": [
				{
					"internalType": "string",
					"name": "docHash",
					"type": "string"
				},
				{
					"internalType": "string",
					"name": "healthCardHash",
					"type": "string"
				},
				{
					"internalType": "string",
					"name": "clinicIdHash",
					"type": "string"
				}
			],
			"name": "addDocument",
			"outputs": [],
			"stateMutability": "nonpayable",
			"type": "function"
		},
		{
			"inputs": [
				{
					"internalType": "uint256",
					"name": "docIndex",
					"type": "uint256"
				}
			],
			"name": "getDocument",
			"outputs": [
				{
					"components": [
						{
							"internalType": "string",
							"name": "docHash",
							"type": "string"
						},
						{
							"internalType": "string",
							"name": "healthCardHash",
							"type": "string"
						},
						{
							"internalType": "string",
							"name": "clinicIdHash",
							"type": "string"
						},
						{
							"internalType": "uint256",
							"name": "timestamp",
							"type": "uint256"
						}
					],
					"internalType": "struct MedicalDataStorage.Document",
					"name": "",
					"type": "tuple"
				}
			],
			"stateMutability": "view",
			"type": "function"
		},
		{
			"inputs": [],
			"name": "getDocumentCount",
			"outputs": [
				{
					"internalType": "uint256",
					"name": "",
					"type": "uint256"
				}
			],
			"stateMutability": "view",
			"type": "function"
		},
		{
			"inputs": [],
			"name": "owner",
			"outputs": [
				{
					"internalType": "address",
					"name": "",
					"type": "address"
				}
			],
			"stateMutability": "view",
			"type": "function"
		},
		{
			"inputs": [],
			"name": "renounceOwnership",
			"outputs": [],
			"stateMutability": "nonpayable",
			"type": "function"
		},
		{
			"inputs": [
				{
					"internalType": "address",
					"name": "newOwner",
					"type": "address"
				}
			],
			"name": "transferOwnership",
			"outputs": [],
			"stateMutability": "nonpayable",
			"type": "function"
		}
	]
}